{
  "_format": "hh-sol-artifact-1",
  "contractName": "SCA",
  "sourceName": "contracts/SCA.sol",
  "abi": [
    {
      "inputs": [],
      "stateMutability": "nonpayable",
      "type": "constructor"
    },
    {
      "inputs": [
        {
          "internalType": "string",
          "name": "Cid",
          "type": "string"
        }
      ],
      "name": "addcid",
      "outputs": [],
      "stateMutability": "payable",
      "type": "function"
    },
    {
      "inputs": [
        {
          "internalType": "uint256",
          "name": "",
          "type": "uint256"
        }
      ],
      "name": "carriermember",
      "outputs": [
        {
          "internalType": "address",
          "name": "",
          "type": "address"
        }
      ],
      "stateMutability": "view",
      "type": "function"
    },
    {
      "inputs": [
        {
          "internalType": "address",
          "name": "user",
          "type": "address"
        }
      ],
      "name": "getRole",
      "outputs": [
        {
          "internalType": "string",
          "name": "",
          "type": "string"
        }
      ],
      "stateMutability": "view",
      "type": "function"
    },
    {
      "inputs": [
        {
          "internalType": "address payable",
          "name": "Carrier",
          "type": "address"
        }
      ],
      "name": "register",
      "outputs": [],
      "stateMutability": "nonpayable",
      "type": "function"
    },
    {
      "inputs": [
        {
          "internalType": "string",
          "name": "Cid",
          "type": "string"
        },
        {
          "internalType": "string",
          "name": "cidverify",
          "type": "string"
        }
      ],
      "name": "show",
      "outputs": [
        {
          "internalType": "bool",
          "name": "",
          "type": "bool"
        }
      ],
      "stateMutability": "view",
      "type": "function"
    },
    {
      "inputs": [],
      "name": "showCarrierList",
      "outputs": [
        {
          "internalType": "address[]",
          "name": "",
          "type": "address[]"
        }
      ],
      "stateMutability": "view",
      "type": "function"
    },
    {
      "inputs": [
        {
          "internalType": "string",
          "name": "Cid",
          "type": "string"
        }
      ],
      "name": "showhash",
      "outputs": [
        {
          "internalType": "string",
          "name": "",
          "type": "string"
        }
      ],
      "stateMutability": "view",
      "type": "function"
    },
    {
      "inputs": [],
      "name": "supplier",
      "outputs": [
        {
          "internalType": "address",
          "name": "",
          "type": "address"
        }
      ],
      "stateMutability": "view",
      "type": "function"
    },
    {
      "inputs": [
        {
          "internalType": "string",
          "name": "Hashcid",
          "type": "string"
        },
        {
          "internalType": "string",
          "name": "Cid",
          "type": "string"
        }
      ],
      "name": "supply",
      "outputs": [],
      "stateMutability": "payable",
      "type": "function"
    },
    {
      "inputs": [],
      "name": "totalEntries",
      "outputs": [
        {
          "internalType": "uint256",
          "name": "",
          "type": "uint256"
        }
      ],
      "stateMutability": "view",
      "type": "function"
    }
  ],
  "bytecode": "0x608060405234801561001057600080fd5b50336000806101000a81548173ffffffffffffffffffffffffffffffffffffffff021916908373ffffffffffffffffffffffffffffffffffffffff1602179055506000600281905550611297806100686000396000f3fe6080604052600436106100915760003560e01c8063442767331161005957806344276733146101805780637fef036e146101bd57806382dd84e1146101e8578063bbb4527914610213578063c5f550a61461022f57610091565b806311baeba3146100965780632b9df719146100d357806336da4468146101105780633d1d94e81461013b5780634420e48614610157575b600080fd5b3480156100a257600080fd5b506100bd60048036038101906100b89190610ab1565b61026c565b6040516100ca9190610b1f565b60405180910390f35b3480156100df57600080fd5b506100fa60048036038101906100f59190610c80565b61029f565b6040516101079190610d13565b60405180910390f35b34801561011c57600080fd5b50610125610318565b6040516101329190610b1f565b60405180910390f35b61015560048036038101906101509190610d2e565b61033c565b005b34801561016357600080fd5b5061017e60048036038101906101799190610db5565b61042a565b005b34801561018c57600080fd5b506101a760048036038101906101a29190610e0e565b6104ef565b6040516101b49190610ec3565b60405180910390f35b3480156101c957600080fd5b506101d261060b565b6040516101df9190610ef4565b60405180910390f35b3480156101f457600080fd5b506101fd610611565b60405161020a9190610fcd565b60405180910390f35b61022d60048036038101906102289190610c80565b61070b565b005b34801561023b57600080fd5b5061025660048036038101906102519190610d2e565b610870565b6040516102639190610ec3565b60405180910390f35b60016020528060005260406000206000915054906101000a900473ffffffffffffffffffffffffffffffffffffffff1681565b60006003836040516102b1919061102b565b90815260200160405180910390206000016040516020016102d29190611137565b60405160208183030381529060405280519060200120826040516020016102f9919061102b565b6040516020818303038152906040528051906020012014905092915050565b60008054906101000a900473ffffffffffffffffffffffffffffffffffffffff1681565b60008054906101000a900473ffffffffffffffffffffffffffffffffffffffff1673ffffffffffffffffffffffffffffffffffffffff163373ffffffffffffffffffffffffffffffffffffffff161461039457600080fd5b60405180604001604052806040518060400160405280600181526020017f3000000000000000000000000000000000000000000000000000000000000000815250815260200160018152506003826040516103ef919061102b565b908152602001604051809103902060008201518160000190805190602001906104199291906109c4565b506020820151816001015590505050565b60008054906101000a900473ffffffffffffffffffffffffffffffffffffffff1673ffffffffffffffffffffffffffffffffffffffff163373ffffffffffffffffffffffffffffffffffffffff161461048257600080fd5b8060016000600254815260200190815260200160002060006101000a81548173ffffffffffffffffffffffffffffffffffffffff021916908373ffffffffffffffffffffffffffffffffffffffff1602179055506002600081546104e59061117d565b9190508190555050565b606060008054906101000a900473ffffffffffffffffffffffffffffffffffffffff1673ffffffffffffffffffffffffffffffffffffffff168273ffffffffffffffffffffffffffffffffffffffff161415610582576040518060400160405280600181526020017f30000000000000000000000000000000000000000000000000000000000000008152509050610606565b61058b82610923565b156105cd576040518060400160405280600181526020017f31000000000000000000000000000000000000000000000000000000000000008152509050610606565b6040518060400160405280600181526020017f320000000000000000000000000000000000000000000000000000000000000081525090505b919050565b60025481565b6060600060025467ffffffffffffffff81111561063157610630610b55565b5b60405190808252806020026020018201604052801561065f5781602001602082028036833780820191505090505b50905060005b600254811015610703576001600082815260200190815260200160002060009054906101000a900473ffffffffffffffffffffffffffffffffffffffff168282815181106106b6576106b56111c6565b5b602002602001019073ffffffffffffffffffffffffffffffffffffffff16908173ffffffffffffffffffffffffffffffffffffffff168152505080806106fb9061117d565b915050610665565b508091505090565b60005b60025481101561079e573373ffffffffffffffffffffffffffffffffffffffff166001600083815260200190815260200160002060009054906101000a900473ffffffffffffffffffffffffffffffffffffffff1673ffffffffffffffffffffffffffffffffffffffff16141561078b57600161078a57600080fd5b5b80806107969061117d565b91505061070e565b5060006107aa57600080fd5b60016003826040516107bc919061102b565b9081526020016040518091039020600101541461080e576040517f08c379a000000000000000000000000000000000000000000000000000000000815260040161080590611241565b60405180910390fd5b60405180604001604052808381526020016001815250600382604051610834919061102b565b9081526020016040518091039020600082015181600001908051906020019061085e9291906109c4565b50602082015181600101559050505050565b6060600382604051610882919061102b565b9081526020016040518091039020600001805461089e90611071565b80601f01602080910402602001604051908101604052809291908181526020018280546108ca90611071565b80156109175780601f106108ec57610100808354040283529160200191610917565b820191906000526020600020905b8154815290600101906020018083116108fa57829003601f168201915b50505050509050919050565b600080600090505b6002548110156109b9578273ffffffffffffffffffffffffffffffffffffffff166001600083815260200190815260200160002060009054906101000a900473ffffffffffffffffffffffffffffffffffffffff1673ffffffffffffffffffffffffffffffffffffffff1614156109a65760019150506109bf565b80806109b19061117d565b91505061092b565b50600090505b919050565b8280546109d090611071565b90600052602060002090601f0160209004810192826109f25760008555610a39565b82601f10610a0b57805160ff1916838001178555610a39565b82800160010185558215610a39579182015b82811115610a38578251825591602001919060010190610a1d565b5b509050610a469190610a4a565b5090565b5b80821115610a63576000816000905550600101610a4b565b5090565b6000604051905090565b600080fd5b600080fd5b6000819050919050565b610a8e81610a7b565b8114610a9957600080fd5b50565b600081359050610aab81610a85565b92915050565b600060208284031215610ac757610ac6610a71565b5b6000610ad584828501610a9c565b91505092915050565b600073ffffffffffffffffffffffffffffffffffffffff82169050919050565b6000610b0982610ade565b9050919050565b610b1981610afe565b82525050565b6000602082019050610b346000830184610b10565b92915050565b600080fd5b600080fd5b6000601f19601f8301169050919050565b7f4e487b7100000000000000000000000000000000000000000000000000000000600052604160045260246000fd5b610b8d82610b44565b810181811067ffffffffffffffff82111715610bac57610bab610b55565b5b80604052505050565b6000610bbf610a67565b9050610bcb8282610b84565b919050565b600067ffffffffffffffff821115610beb57610bea610b55565b5b610bf482610b44565b9050602081019050919050565b82818337600083830152505050565b6000610c23610c1e84610bd0565b610bb5565b905082815260208101848484011115610c3f57610c3e610b3f565b5b610c4a848285610c01565b509392505050565b600082601f830112610c6757610c66610b3a565b5b8135610c77848260208601610c10565b91505092915050565b60008060408385031215610c9757610c96610a71565b5b600083013567ffffffffffffffff811115610cb557610cb4610a76565b5b610cc185828601610c52565b925050602083013567ffffffffffffffff811115610ce257610ce1610a76565b5b610cee85828601610c52565b9150509250929050565b60008115159050919050565b610d0d81610cf8565b82525050565b6000602082019050610d286000830184610d04565b92915050565b600060208284031215610d4457610d43610a71565b5b600082013567ffffffffffffffff811115610d6257610d61610a76565b5b610d6e84828501610c52565b91505092915050565b6000610d8282610ade565b9050919050565b610d9281610d77565b8114610d9d57600080fd5b50565b600081359050610daf81610d89565b92915050565b600060208284031215610dcb57610dca610a71565b5b6000610dd984828501610da0565b91505092915050565b610deb81610afe565b8114610df657600080fd5b50565b600081359050610e0881610de2565b92915050565b600060208284031215610e2457610e23610a71565b5b6000610e3284828501610df9565b91505092915050565b600081519050919050565b600082825260208201905092915050565b60005b83811015610e75578082015181840152602081019050610e5a565b83811115610e84576000848401525b50505050565b6000610e9582610e3b565b610e9f8185610e46565b9350610eaf818560208601610e57565b610eb881610b44565b840191505092915050565b60006020820190508181036000830152610edd8184610e8a565b905092915050565b610eee81610a7b565b82525050565b6000602082019050610f096000830184610ee5565b92915050565b600081519050919050565b600082825260208201905092915050565b6000819050602082019050919050565b610f4481610afe565b82525050565b6000610f568383610f3b565b60208301905092915050565b6000602082019050919050565b6000610f7a82610f0f565b610f848185610f1a565b9350610f8f83610f2b565b8060005b83811015610fc0578151610fa78882610f4a565b9750610fb283610f62565b925050600181019050610f93565b5085935050505092915050565b60006020820190508181036000830152610fe78184610f6f565b905092915050565b600081905092915050565b600061100582610e3b565b61100f8185610fef565b935061101f818560208601610e57565b80840191505092915050565b60006110378284610ffa565b915081905092915050565b7f4e487b7100000000000000000000000000000000000000000000000000000000600052602260045260246000fd5b6000600282049050600182168061108957607f821691505b6020821081141561109d5761109c611042565b5b50919050565b60008190508160005260206000209050919050565b600081546110c581611071565b6110cf8186610fef565b945060018216600081146110ea57600181146110fb5761112e565b60ff1983168652818601935061112e565b611104856110a3565b60005b8381101561112657815481890152600182019150602081019050611107565b838801955050505b50505092915050565b600061114382846110b8565b915081905092915050565b7f4e487b7100000000000000000000000000000000000000000000000000000000600052601160045260246000fd5b600061118882610a7b565b91507fffffffffffffffffffffffffffffffffffffffffffffffffffffffffffffffff8214156111bb576111ba61114e565b5b600182019050919050565b7f4e487b7100000000000000000000000000000000000000000000000000000000600052603260045260246000fd5b7f737570706c696572000000000000000000000000000000000000000000000000600082015250565b600061122b600883610e46565b9150611236826111f5565b602082019050919050565b6000602082019050818103600083015261125a8161121e565b905091905056fea2646970667358221220f67dc652b6a9643a5991d7d1c2953c0aa13e446af1a0f482250984df308d589b64736f6c63430008090033",
  "linkReferences": {},
  "deployedLinkReferences": {}
}