{
  "_format": "hh-sol-artifact-1",
  "contractName": "SCA",
  "sourceName": "contracts/SCA.sol",
  "abi": [
    {
      "inputs": [],
      "stateMutability": "nonpayable",
      "type": "constructor"
    },
    {
      "inputs": [
        {
          "internalType": "string",
          "name": "Cid",
          "type": "string"
        }
      ],
      "name": "addcid",
      "outputs": [],
      "stateMutability": "payable",
      "type": "function"
    },
    {
      "inputs": [
        {
          "internalType": "uint256",
          "name": "",
          "type": "uint256"
        }
      ],
      "name": "carriermember",
      "outputs": [
        {
          "internalType": "address",
          "name": "",
          "type": "address"
        }
      ],
      "stateMutability": "view",
      "type": "function"
    },
    {
      "inputs": [],
      "name": "cid_count",
      "outputs": [
        {
          "internalType": "uint256",
          "name": "",
          "type": "uint256"
        }
      ],
      "stateMutability": "view",
      "type": "function"
    },
    {
      "inputs": [
        {
          "internalType": "address",
          "name": "user",
          "type": "address"
        }
      ],
      "name": "getRole",
      "outputs": [
        {
          "internalType": "string",
          "name": "",
          "type": "string"
        }
      ],
      "stateMutability": "view",
      "type": "function"
    },
    {
      "inputs": [
        {
          "internalType": "address payable",
          "name": "Carrier",
          "type": "address"
        }
      ],
      "name": "register",
      "outputs": [],
      "stateMutability": "nonpayable",
      "type": "function"
    },
    {
      "inputs": [
        {
          "internalType": "string",
          "name": "Cid",
          "type": "string"
        },
        {
          "internalType": "string",
          "name": "cidverify",
          "type": "string"
        }
      ],
      "name": "show",
      "outputs": [
        {
          "internalType": "bool",
          "name": "",
          "type": "bool"
        }
      ],
      "stateMutability": "view",
      "type": "function"
    },
    {
      "inputs": [],
      "name": "showCarrierList",
      "outputs": [
        {
          "internalType": "address[]",
          "name": "",
          "type": "address[]"
        }
      ],
      "stateMutability": "view",
      "type": "function"
    },
    {
      "inputs": [],
      "name": "supplier",
      "outputs": [
        {
          "internalType": "address",
          "name": "",
          "type": "address"
        }
      ],
      "stateMutability": "view",
      "type": "function"
    },
    {
      "inputs": [
        {
          "internalType": "string",
          "name": "Hashcid",
          "type": "string"
        },
        {
          "internalType": "string",
          "name": "Cid",
          "type": "string"
        },
        {
          "internalType": "address",
          "name": "_carrier",
          "type": "address"
        }
      ],
      "name": "supply",
      "outputs": [],
      "stateMutability": "payable",
      "type": "function"
    },
    {
      "inputs": [],
      "name": "totalEntries",
      "outputs": [
        {
          "internalType": "uint256",
          "name": "",
          "type": "uint256"
        }
      ],
      "stateMutability": "view",
      "type": "function"
    }
  ],
  "bytecode": "0x608060405234801561001057600080fd5b50336000806101000a81548173ffffffffffffffffffffffffffffffffffffffff021916908373ffffffffffffffffffffffffffffffffffffffff1602179055506000600281905550611327806100686000396000f3fe6080604052600436106100915760003560e01c80634420e486116100595780634420e4861461018257806344276733146101ab5780637fef036e146101e857806382dd84e114610213578063fe3434601461023e57610091565b806311baeba31461009657806314f9e5c4146100d35780632b9df719146100fe57806336da44681461013b5780633d1d94e814610166575b600080fd5b3480156100a257600080fd5b506100bd60048036038101906100b89190610a60565b61025a565b6040516100ca9190610ace565b60405180910390f35b3480156100df57600080fd5b506100e861028d565b6040516100f59190610af8565b60405180910390f35b34801561010a57600080fd5b5061012560048036038101906101209190610c59565b610293565b6040516101329190610cec565b60405180910390f35b34801561014757600080fd5b5061015061030c565b60405161015d9190610ace565b60405180910390f35b610180600480360381019061017b9190610d07565b610330565b005b34801561018e57600080fd5b506101a960048036038101906101a49190610d8e565b610422565b005b3480156101b757600080fd5b506101d260048036038101906101cd9190610de7565b6104e7565b6040516101df9190610e9c565b60405180910390f35b3480156101f457600080fd5b506101fd610603565b60405161020a9190610af8565b60405180910390f35b34801561021f57600080fd5b50610228610609565b6040516102359190610f7c565b60405180910390f35b61025860048036038101906102539190610f9e565b610703565b005b60016020528060005260406000206000915054906101000a900473ffffffffffffffffffffffffffffffffffffffff1681565b60035481565b60006004836040516102a59190611065565b90815260200160405180910390206000016040516020016102c69190611171565b60405160208183030381529060405280519060200120826040516020016102ed9190611065565b6040516020818303038152906040528051906020012014905092915050565b60008054906101000a900473ffffffffffffffffffffffffffffffffffffffff1681565b60008054906101000a900473ffffffffffffffffffffffffffffffffffffffff1673ffffffffffffffffffffffffffffffffffffffff163373ffffffffffffffffffffffffffffffffffffffff161461038857600080fd5b604051806040016040528060405180602001604052806000815250815260200160018152506004826040516103bd9190611065565b908152602001604051809103902060008201518160000190805190602001906103e7929190610973565b506020820151816001015590505080600560006003548152602001908152602001600020908051906020019061041e929190610973565b5050565b60008054906101000a900473ffffffffffffffffffffffffffffffffffffffff1673ffffffffffffffffffffffffffffffffffffffff163373ffffffffffffffffffffffffffffffffffffffff161461047a57600080fd5b8060016000600254815260200190815260200160002060006101000a81548173ffffffffffffffffffffffffffffffffffffffff021916908373ffffffffffffffffffffffffffffffffffffffff1602179055506002600081546104dd906111b7565b9190508190555050565b606060008054906101000a900473ffffffffffffffffffffffffffffffffffffffff1673ffffffffffffffffffffffffffffffffffffffff168273ffffffffffffffffffffffffffffffffffffffff16141561057a576040518060400160405280600181526020017f300000000000000000000000000000000000000000000000000000000000000081525090506105fe565b610583826108d2565b156105c5576040518060400160405280600181526020017f310000000000000000000000000000000000000000000000000000000000000081525090506105fe565b6040518060400160405280600181526020017f320000000000000000000000000000000000000000000000000000000000000081525090505b919050565b60025481565b6060600060025467ffffffffffffffff81111561062957610628610b2e565b5b6040519080825280602002602001820160405280156106575781602001602082028036833780820191505090505b50905060005b6002548110156106fb576001600082815260200190815260200160002060009054906101000a900473ffffffffffffffffffffffffffffffffffffffff168282815181106106ae576106ad611200565b5b602002602001019073ffffffffffffffffffffffffffffffffffffffff16908173ffffffffffffffffffffffffffffffffffffffff168152505080806106f3906111b7565b91505061065d565b508091505090565b60005b600254811015610796573373ffffffffffffffffffffffffffffffffffffffff166001600083815260200190815260200160002060009054906101000a900473ffffffffffffffffffffffffffffffffffffffff1673ffffffffffffffffffffffffffffffffffffffff16141561078357600161078257600080fd5b5b808061078e906111b7565b915050610706565b5060006107a257600080fd5b60016004836040516107b49190611065565b90815260200160405180910390206001015414610806576040517f08c379a00000000000000000000000000000000000000000000000000000000081526004016107fd9061127b565b60405180910390fd5b6040518060400160405280848152602001600181525060048360405161082c9190611065565b90815260200160405180910390206000820151816000019080519060200190610856929190610973565b50602082015181600101559050508060066000600354815260200190815260200160002060006101000a81548173ffffffffffffffffffffffffffffffffffffffff021916908373ffffffffffffffffffffffffffffffffffffffff16021790555060016003546108c7919061129b565b600381905550505050565b600080600090505b600254811015610968578273ffffffffffffffffffffffffffffffffffffffff166001600083815260200190815260200160002060009054906101000a900473ffffffffffffffffffffffffffffffffffffffff1673ffffffffffffffffffffffffffffffffffffffff16141561095557600191505061096e565b8080610960906111b7565b9150506108da565b50600090505b919050565b82805461097f906110ab565b90600052602060002090601f0160209004810192826109a157600085556109e8565b82601f106109ba57805160ff19168380011785556109e8565b828001600101855582156109e8579182015b828111156109e75782518255916020019190600101906109cc565b5b5090506109f591906109f9565b5090565b5b80821115610a125760008160009055506001016109fa565b5090565b6000604051905090565b600080fd5b600080fd5b6000819050919050565b610a3d81610a2a565b8114610a4857600080fd5b50565b600081359050610a5a81610a34565b92915050565b600060208284031215610a7657610a75610a20565b5b6000610a8484828501610a4b565b91505092915050565b600073ffffffffffffffffffffffffffffffffffffffff82169050919050565b6000610ab882610a8d565b9050919050565b610ac881610aad565b82525050565b6000602082019050610ae36000830184610abf565b92915050565b610af281610a2a565b82525050565b6000602082019050610b0d6000830184610ae9565b92915050565b600080fd5b600080fd5b6000601f19601f8301169050919050565b7f4e487b7100000000000000000000000000000000000000000000000000000000600052604160045260246000fd5b610b6682610b1d565b810181811067ffffffffffffffff82111715610b8557610b84610b2e565b5b80604052505050565b6000610b98610a16565b9050610ba48282610b5d565b919050565b600067ffffffffffffffff821115610bc457610bc3610b2e565b5b610bcd82610b1d565b9050602081019050919050565b82818337600083830152505050565b6000610bfc610bf784610ba9565b610b8e565b905082815260208101848484011115610c1857610c17610b18565b5b610c23848285610bda565b509392505050565b600082601f830112610c4057610c3f610b13565b5b8135610c50848260208601610be9565b91505092915050565b60008060408385031215610c7057610c6f610a20565b5b600083013567ffffffffffffffff811115610c8e57610c8d610a25565b5b610c9a85828601610c2b565b925050602083013567ffffffffffffffff811115610cbb57610cba610a25565b5b610cc785828601610c2b565b9150509250929050565b60008115159050919050565b610ce681610cd1565b82525050565b6000602082019050610d016000830184610cdd565b92915050565b600060208284031215610d1d57610d1c610a20565b5b600082013567ffffffffffffffff811115610d3b57610d3a610a25565b5b610d4784828501610c2b565b91505092915050565b6000610d5b82610a8d565b9050919050565b610d6b81610d50565b8114610d7657600080fd5b50565b600081359050610d8881610d62565b92915050565b600060208284031215610da457610da3610a20565b5b6000610db284828501610d79565b91505092915050565b610dc481610aad565b8114610dcf57600080fd5b50565b600081359050610de181610dbb565b92915050565b600060208284031215610dfd57610dfc610a20565b5b6000610e0b84828501610dd2565b91505092915050565b600081519050919050565b600082825260208201905092915050565b60005b83811015610e4e578082015181840152602081019050610e33565b83811115610e5d576000848401525b50505050565b6000610e6e82610e14565b610e788185610e1f565b9350610e88818560208601610e30565b610e9181610b1d565b840191505092915050565b60006020820190508181036000830152610eb68184610e63565b905092915050565b600081519050919050565b600082825260208201905092915050565b6000819050602082019050919050565b610ef381610aad565b82525050565b6000610f058383610eea565b60208301905092915050565b6000602082019050919050565b6000610f2982610ebe565b610f338185610ec9565b9350610f3e83610eda565b8060005b83811015610f6f578151610f568882610ef9565b9750610f6183610f11565b925050600181019050610f42565b5085935050505092915050565b60006020820190508181036000830152610f968184610f1e565b905092915050565b600080600060608486031215610fb757610fb6610a20565b5b600084013567ffffffffffffffff811115610fd557610fd4610a25565b5b610fe186828701610c2b565b935050602084013567ffffffffffffffff81111561100257611001610a25565b5b61100e86828701610c2b565b925050604061101f86828701610dd2565b9150509250925092565b600081905092915050565b600061103f82610e14565b6110498185611029565b9350611059818560208601610e30565b80840191505092915050565b60006110718284611034565b915081905092915050565b7f4e487b7100000000000000000000000000000000000000000000000000000000600052602260045260246000fd5b600060028204905060018216806110c357607f821691505b602082108114156110d7576110d661107c565b5b50919050565b60008190508160005260206000209050919050565b600081546110ff816110ab565b6111098186611029565b94506001821660008114611124576001811461113557611168565b60ff19831686528186019350611168565b61113e856110dd565b60005b8381101561116057815481890152600182019150602081019050611141565b838801955050505b50505092915050565b600061117d82846110f2565b915081905092915050565b7f4e487b7100000000000000000000000000000000000000000000000000000000600052601160045260246000fd5b60006111c282610a2a565b91507fffffffffffffffffffffffffffffffffffffffffffffffffffffffffffffffff8214156111f5576111f4611188565b5b600182019050919050565b7f4e487b7100000000000000000000000000000000000000000000000000000000600052603260045260246000fd5b7f737570706c696572000000000000000000000000000000000000000000000000600082015250565b6000611265600883610e1f565b91506112708261122f565b602082019050919050565b6000602082019050818103600083015261129481611258565b9050919050565b60006112a682610a2a565b91506112b183610a2a565b9250827fffffffffffffffffffffffffffffffffffffffffffffffffffffffffffffffff038211156112e6576112e5611188565b5b82820190509291505056fea2646970667358221220d3a6ba925a5124f821854c45c2c889ec45b62d2b3f0d1f51d6457f2c10fde13064736f6c63430008090033",
  "linkReferences": {},
  "deployedLinkReferences": {}
}