{
  "_format": "hh-sol-artifact-1",
  "contractName": "SCA",
  "sourceName": "contracts/SCA.sol",
  "abi": [
    {
      "inputs": [],
      "stateMutability": "nonpayable",
      "type": "constructor"
    },
    {
      "inputs": [
        {
          "internalType": "string",
          "name": "Cid",
          "type": "string"
        }
      ],
      "name": "addcid",
      "outputs": [],
      "stateMutability": "payable",
      "type": "function"
    },
    {
      "inputs": [
        {
          "internalType": "address",
          "name": "user",
          "type": "address"
        }
      ],
      "name": "getRole",
      "outputs": [
        {
          "internalType": "string",
          "name": "",
          "type": "string"
        }
      ],
      "stateMutability": "view",
      "type": "function"
    },
    {
      "inputs": [
        {
          "internalType": "address payable",
          "name": "Carrier",
          "type": "address"
        }
      ],
      "name": "register",
      "outputs": [],
      "stateMutability": "nonpayable",
      "type": "function"
    },
    {
      "inputs": [
        {
          "internalType": "string",
          "name": "Cid",
          "type": "string"
        },
        {
          "internalType": "string",
          "name": "cidverify",
          "type": "string"
        }
      ],
      "name": "show",
      "outputs": [
        {
          "internalType": "bool",
          "name": "",
          "type": "bool"
        }
      ],
      "stateMutability": "view",
      "type": "function"
    },
    {
      "inputs": [],
      "name": "showcarrier",
      "outputs": [
        {
          "internalType": "bool",
          "name": "",
          "type": "bool"
        }
      ],
      "stateMutability": "view",
      "type": "function"
    },
    {
      "inputs": [
        {
          "internalType": "string",
          "name": "Cid",
          "type": "string"
        }
      ],
      "name": "showhash",
      "outputs": [
        {
          "internalType": "string",
          "name": "",
          "type": "string"
        }
      ],
      "stateMutability": "view",
      "type": "function"
    },
    {
      "inputs": [],
      "name": "supplier",
      "outputs": [
        {
          "internalType": "address",
          "name": "",
          "type": "address"
        }
      ],
      "stateMutability": "view",
      "type": "function"
    },
    {
      "inputs": [
        {
          "internalType": "string",
          "name": "Hashcid",
          "type": "string"
        },
        {
          "internalType": "string",
          "name": "Cid",
          "type": "string"
        }
      ],
      "name": "supply",
      "outputs": [],
      "stateMutability": "payable",
      "type": "function"
    },
    {
      "inputs": [
        {
          "internalType": "address payable",
          "name": "Carrier",
          "type": "address"
        }
      ],
      "name": "unregister",
      "outputs": [],
      "stateMutability": "nonpayable",
      "type": "function"
    }
  ],
  "bytecode": "0x608060405234801561001057600080fd5b50336000806101000a81548173ffffffffffffffffffffffffffffffffffffffff021916908373ffffffffffffffffffffffffffffffffffffffff160217905550610f0d806100606000396000f3fe6080604052600436106100865760003560e01c80633d1d94e8116100595780633d1d94e8146101475780634420e48614610163578063442767331461018c578063bbb45279146101c9578063c5f550a6146101e557610086565b80631bc24e941461008b5780632b9df719146100b65780632ec2c246146100f357806336da44681461011c575b600080fd5b34801561009757600080fd5b506100a0610222565b6040516100ad919061090c565b60405180910390f35b3480156100c257600080fd5b506100dd60048036038101906100d89190610a81565b61026b565b6040516100ea919061090c565b60405180910390f35b3480156100ff57600080fd5b5061011a60048036038101906101159190610b57565b6102e4565b005b34801561012857600080fd5b50610131610384565b60405161013e9190610ba5565b60405180910390f35b610161600480360381019061015c9190610bc0565b6103a8565b005b34801561016f57600080fd5b5061018a60048036038101906101859190610b57565b610496565b005b34801561019857600080fd5b506101b360048036038101906101ae9190610c35565b610535565b6040516101c09190610cea565b60405180910390f35b6101e360048036038101906101de9190610a81565b61068a565b005b3480156101f157600080fd5b5061020c60048036038101906102079190610bc0565b61079b565b6040516102199190610cea565b60405180910390f35b600060018060003373ffffffffffffffffffffffffffffffffffffffff1673ffffffffffffffffffffffffffffffffffffffff1681526020019081526020016000205414905090565b600060028360405161027d9190610d48565b908152602001604051809103902060000160405160200161029e9190610e54565b60405160208183030381529060405280519060200120826040516020016102c59190610d48565b6040516020818303038152906040528051906020012014905092915050565b60008054906101000a900473ffffffffffffffffffffffffffffffffffffffff1673ffffffffffffffffffffffffffffffffffffffff163373ffffffffffffffffffffffffffffffffffffffff161461033c57600080fd5b6000600160008373ffffffffffffffffffffffffffffffffffffffff1673ffffffffffffffffffffffffffffffffffffffff1681526020019081526020016000208190555050565b60008054906101000a900473ffffffffffffffffffffffffffffffffffffffff1681565b60008054906101000a900473ffffffffffffffffffffffffffffffffffffffff1673ffffffffffffffffffffffffffffffffffffffff163373ffffffffffffffffffffffffffffffffffffffff161461040057600080fd5b60405180604001604052806040518060400160405280600181526020017f30000000000000000000000000000000000000000000000000000000000000008152508152602001600181525060028260405161045b9190610d48565b9081526020016040518091039020600082015181600001908051906020019061048592919061084e565b506020820151816001015590505050565b60008054906101000a900473ffffffffffffffffffffffffffffffffffffffff1673ffffffffffffffffffffffffffffffffffffffff163373ffffffffffffffffffffffffffffffffffffffff16146104ee57600080fd5b60018060008373ffffffffffffffffffffffffffffffffffffffff1673ffffffffffffffffffffffffffffffffffffffff1681526020019081526020016000208190555050565b606060008054906101000a900473ffffffffffffffffffffffffffffffffffffffff1673ffffffffffffffffffffffffffffffffffffffff168273ffffffffffffffffffffffffffffffffffffffff1614156105c8576040518060400160405280600181526020017f30000000000000000000000000000000000000000000000000000000000000008152509050610685565b60018060008473ffffffffffffffffffffffffffffffffffffffff1673ffffffffffffffffffffffffffffffffffffffff16815260200190815260200160002054141561064c576040518060400160405280600181526020017f31000000000000000000000000000000000000000000000000000000000000008152509050610685565b6040518060400160405280600181526020017f320000000000000000000000000000000000000000000000000000000000000081525090505b919050565b60018060003373ffffffffffffffffffffffffffffffffffffffff1673ffffffffffffffffffffffffffffffffffffffff16815260200190815260200160002054146106d557600080fd5b60016002826040516106e79190610d48565b90815260200160405180910390206001015414610739576040517f08c379a000000000000000000000000000000000000000000000000000000000815260040161073090610eb7565b60405180910390fd5b6040518060400160405280838152602001600181525060028260405161075f9190610d48565b9081526020016040518091039020600082015181600001908051906020019061078992919061084e565b50602082015181600101559050505050565b60606002826040516107ad9190610d48565b908152602001604051809103902060000180546107c990610d8e565b80601f01602080910402602001604051908101604052809291908181526020018280546107f590610d8e565b80156108425780601f1061081757610100808354040283529160200191610842565b820191906000526020600020905b81548152906001019060200180831161082557829003601f168201915b50505050509050919050565b82805461085a90610d8e565b90600052602060002090601f01602090048101928261087c57600085556108c3565b82601f1061089557805160ff19168380011785556108c3565b828001600101855582156108c3579182015b828111156108c25782518255916020019190600101906108a7565b5b5090506108d091906108d4565b5090565b5b808211156108ed5760008160009055506001016108d5565b5090565b60008115159050919050565b610906816108f1565b82525050565b600060208201905061092160008301846108fd565b92915050565b6000604051905090565b600080fd5b600080fd5b600080fd5b600080fd5b6000601f19601f8301169050919050565b7f4e487b7100000000000000000000000000000000000000000000000000000000600052604160045260246000fd5b61098e82610945565b810181811067ffffffffffffffff821117156109ad576109ac610956565b5b80604052505050565b60006109c0610927565b90506109cc8282610985565b919050565b600067ffffffffffffffff8211156109ec576109eb610956565b5b6109f582610945565b9050602081019050919050565b82818337600083830152505050565b6000610a24610a1f846109d1565b6109b6565b905082815260208101848484011115610a4057610a3f610940565b5b610a4b848285610a02565b509392505050565b600082601f830112610a6857610a6761093b565b5b8135610a78848260208601610a11565b91505092915050565b60008060408385031215610a9857610a97610931565b5b600083013567ffffffffffffffff811115610ab657610ab5610936565b5b610ac285828601610a53565b925050602083013567ffffffffffffffff811115610ae357610ae2610936565b5b610aef85828601610a53565b9150509250929050565b600073ffffffffffffffffffffffffffffffffffffffff82169050919050565b6000610b2482610af9565b9050919050565b610b3481610b19565b8114610b3f57600080fd5b50565b600081359050610b5181610b2b565b92915050565b600060208284031215610b6d57610b6c610931565b5b6000610b7b84828501610b42565b91505092915050565b6000610b8f82610af9565b9050919050565b610b9f81610b84565b82525050565b6000602082019050610bba6000830184610b96565b92915050565b600060208284031215610bd657610bd5610931565b5b600082013567ffffffffffffffff811115610bf457610bf3610936565b5b610c0084828501610a53565b91505092915050565b610c1281610b84565b8114610c1d57600080fd5b50565b600081359050610c2f81610c09565b92915050565b600060208284031215610c4b57610c4a610931565b5b6000610c5984828501610c20565b91505092915050565b600081519050919050565b600082825260208201905092915050565b60005b83811015610c9c578082015181840152602081019050610c81565b83811115610cab576000848401525b50505050565b6000610cbc82610c62565b610cc68185610c6d565b9350610cd6818560208601610c7e565b610cdf81610945565b840191505092915050565b60006020820190508181036000830152610d048184610cb1565b905092915050565b600081905092915050565b6000610d2282610c62565b610d2c8185610d0c565b9350610d3c818560208601610c7e565b80840191505092915050565b6000610d548284610d17565b915081905092915050565b7f4e487b7100000000000000000000000000000000000000000000000000000000600052602260045260246000fd5b60006002820490506001821680610da657607f821691505b60208210811415610dba57610db9610d5f565b5b50919050565b60008190508160005260206000209050919050565b60008154610de281610d8e565b610dec8186610d0c565b94506001821660008114610e075760018114610e1857610e4b565b60ff19831686528186019350610e4b565b610e2185610dc0565b60005b83811015610e4357815481890152600182019150602081019050610e24565b838801955050505b50505092915050565b6000610e608284610dd5565b915081905092915050565b7f737570706c696572000000000000000000000000000000000000000000000000600082015250565b6000610ea1600883610c6d565b9150610eac82610e6b565b602082019050919050565b60006020820190508181036000830152610ed081610e94565b905091905056fea264697066735822122019493b40fe016ad7876c7a4db685ce25a852a622fb82ae69bcae168e0b13529c64736f6c63430008090033",
  "linkReferences": {},
  "deployedLinkReferences": {}
}